{
  "_format": "hh-sol-artifact-1",
  "contractName": "TodoList",
  "sourceName": "contracts/TodoList.sol",
  "abi": [
    {
      "anonymous": false,
      "inputs": [
        {
          "indexed": false,
          "internalType": "uint256",
          "name": "id",
          "type": "uint256"
        },
        {
          "indexed": false,
          "internalType": "string",
          "name": "content",
          "type": "string"
        },
        {
          "indexed": false,
          "internalType": "address",
          "name": "owner",
          "type": "address"
        }
      ],
      "name": "TaskCreated",
      "type": "event"
    },
    {
      "anonymous": false,
      "inputs": [
        {
          "indexed": false,
          "internalType": "uint256",
          "name": "id",
          "type": "uint256"
        }
      ],
      "name": "TaskDeleted",
      "type": "event"
    },
    {
      "anonymous": false,
      "inputs": [
        {
          "indexed": false,
          "internalType": "uint256",
          "name": "id",
          "type": "uint256"
        },
        {
          "indexed": false,
          "internalType": "string",
          "name": "content",
          "type": "string"
        },
        {
          "indexed": false,
          "internalType": "bool",
          "name": "completed",
          "type": "bool"
        }
      ],
      "name": "TaskUpdated",
      "type": "event"
    },
    {
      "inputs": [
        {
          "internalType": "string",
          "name": "_content",
          "type": "string"
        }
      ],
      "name": "createTask",
      "outputs": [],
      "stateMutability": "nonpayable",
      "type": "function"
    },
    {
      "inputs": [
        {
          "internalType": "uint256",
          "name": "_id",
          "type": "uint256"
        }
      ],
      "name": "deleteTask",
      "outputs": [],
      "stateMutability": "nonpayable",
      "type": "function"
    },
    {
      "inputs": [
        {
          "internalType": "uint256",
          "name": "_id",
          "type": "uint256"
        }
      ],
      "name": "getTaskById",
      "outputs": [
        {
          "internalType": "uint256",
          "name": "",
          "type": "uint256"
        },
        {
          "internalType": "string",
          "name": "",
          "type": "string"
        },
        {
          "internalType": "bool",
          "name": "",
          "type": "bool"
        },
        {
          "internalType": "address",
          "name": "",
          "type": "address"
        }
      ],
      "stateMutability": "view",
      "type": "function"
    },
    {
      "inputs": [],
      "name": "getTaskCountByUser",
      "outputs": [
        {
          "internalType": "uint256",
          "name": "",
          "type": "uint256"
        }
      ],
      "stateMutability": "view",
      "type": "function"
    },
    {
      "inputs": [],
      "name": "taskCount",
      "outputs": [
        {
          "internalType": "uint256",
          "name": "",
          "type": "uint256"
        }
      ],
      "stateMutability": "view",
      "type": "function"
    },
    {
      "inputs": [
        {
          "internalType": "uint256",
          "name": "",
          "type": "uint256"
        }
      ],
      "name": "tasks",
      "outputs": [
        {
          "internalType": "uint256",
          "name": "id",
          "type": "uint256"
        },
        {
          "internalType": "string",
          "name": "content",
          "type": "string"
        },
        {
          "internalType": "bool",
          "name": "completed",
          "type": "bool"
        },
        {
          "internalType": "address",
          "name": "owner",
          "type": "address"
        }
      ],
      "stateMutability": "view",
      "type": "function"
    },
    {
      "inputs": [
        {
          "internalType": "uint256",
          "name": "_id",
          "type": "uint256"
        },
        {
          "internalType": "string",
          "name": "_content",
          "type": "string"
        },
        {
          "internalType": "bool",
          "name": "_completed",
          "type": "bool"
        }
      ],
      "name": "updateTask",
      "outputs": [],
      "stateMutability": "nonpayable",
      "type": "function"
    },
    {
      "inputs": [
        {
          "internalType": "address",
          "name": "",
          "type": "address"
        }
      ],
      "name": "userTaskCounts",
      "outputs": [
        {
          "internalType": "uint256",
          "name": "",
          "type": "uint256"
        }
      ],
      "stateMutability": "view",
      "type": "function"
    }
  ],
  "bytecode": "0x608060405260008055348015601357600080fd5b506111b8806100236000396000f3fe608060405234801561001057600080fd5b50600436106100875760003560e01c80638d9776721161005b5780638d9776721461011057806393df8e1514610143578063976217cd14610161578063b6cb58a51461019457610087565b8062d5c4771461008c578063111002aa146100a857806329cc6e5e146100c4578063560f3192146100f4575b600080fd5b6100a660048036038101906100a19190610a07565b6101b2565b005b6100c260048036038101906100bd9190610a76565b610238565b005b6100de60048036038101906100d99190610b1d565b610402565b6040516100eb9190610b59565b60405180910390f35b61010e60048036038101906101099190610b74565b61041a565b005b61012a60048036038101906101259190610b74565b6105b6565b60405161013a9493929190610c3e565b60405180910390f35b61014b61069b565b6040516101589190610b59565b60405180910390f35b61017b60048036038101906101769190610b74565b6106e2565b60405161018b9493929190610c3e565b60405180910390f35b61019c6107dc565b6040516101a99190610b59565b60405180910390f35b6000600160008581526020019081526020016000209050828160010190816101da9190610e96565b50818160020160006101000a81548160ff0219169083151502179055507f731243b94fd6f4071f6ac97a26cb4cff681428631c877c64cdea5371290b01c184848460405161022a93929190610f68565b60405180910390a150505050565b600081511161027c576040517f08c379a000000000000000000000000000000000000000000000000000000000815260040161027390610ff2565b60405180910390fd5b60008081548092919061028e90611041565b9190505550604051806080016040528060005481526020018281526020016000151581526020013373ffffffffffffffffffffffffffffffffffffffff1681525060016000805481526020019081526020016000206000820151816000015560208201518160010190816103029190610e96565b5060408201518160020160006101000a81548160ff02191690831515021790555060608201518160020160016101000a81548173ffffffffffffffffffffffffffffffffffffffff021916908373ffffffffffffffffffffffffffffffffffffffff160217905550905050600260003373ffffffffffffffffffffffffffffffffffffffff1673ffffffffffffffffffffffffffffffffffffffff16815260200190815260200160002060008154809291906103bd90611041565b91905055507fdc691e972cb25fd6e968744b5a6416d42a052ac1305e3b7ed6777b621304b7f260005482336040516103f793929190611089565b60405180910390a150565b60026020528060005260406000206000915090505481565b3373ffffffffffffffffffffffffffffffffffffffff166001600083815260200190815260200160002060020160019054906101000a900473ffffffffffffffffffffffffffffffffffffffff1673ffffffffffffffffffffffffffffffffffffffff16146104be576040517f08c379a00000000000000000000000000000000000000000000000000000000081526004016104b590611139565b60405180910390fd5b600260003373ffffffffffffffffffffffffffffffffffffffff1673ffffffffffffffffffffffffffffffffffffffff168152602001908152602001600020600081548092919061050e90611159565b91905055506001600082815260200190815260200160002060008082016000905560018201600061053f91906107e2565b6002820160006101000a81549060ff02191690556002820160016101000a81549073ffffffffffffffffffffffffffffffffffffffff021916905550507fd078b251d950cc55c44340be1db732337ef4939a76e1367ee271ad2cb19c46af816040516105ab9190610b59565b60405180910390a150565b60016020528060005260406000206000915090508060000154908060010180546105df90610cb9565b80601f016020809104026020016040519081016040528092919081815260200182805461060b90610cb9565b80156106585780601f1061062d57610100808354040283529160200191610658565b820191906000526020600020905b81548152906001019060200180831161063b57829003601f168201915b5050505050908060020160009054906101000a900460ff16908060020160019054906101000a900473ffffffffffffffffffffffffffffffffffffffff16905084565b6000600260003373ffffffffffffffffffffffffffffffffffffffff1673ffffffffffffffffffffffffffffffffffffffff16815260200190815260200160002054905090565b6000606060008060006001600087815260200190815260200160002090508060000154816001018260020160009054906101000a900460ff168360020160019054906101000a900473ffffffffffffffffffffffffffffffffffffffff1682805461074c90610cb9565b80601f016020809104026020016040519081016040528092919081815260200182805461077890610cb9565b80156107c55780601f1061079a576101008083540402835291602001916107c5565b820191906000526020600020905b8154815290600101906020018083116107a857829003601f168201915b505050505092509450945094509450509193509193565b60005481565b5080546107ee90610cb9565b6000825580601f10610800575061081f565b601f01602090049060005260206000209081019061081e9190610822565b5b50565b5b8082111561083b576000816000905550600101610823565b5090565b6000604051905090565b600080fd5b600080fd5b6000819050919050565b61086681610853565b811461087157600080fd5b50565b6000813590506108838161085d565b92915050565b600080fd5b600080fd5b6000601f19601f8301169050919050565b7f4e487b7100000000000000000000000000000000000000000000000000000000600052604160045260246000fd5b6108dc82610893565b810181811067ffffffffffffffff821117156108fb576108fa6108a4565b5b80604052505050565b600061090e61083f565b905061091a82826108d3565b919050565b600067ffffffffffffffff82111561093a576109396108a4565b5b61094382610893565b9050602081019050919050565b82818337600083830152505050565b600061097261096d8461091f565b610904565b90508281526020810184848401111561098e5761098d61088e565b5b610999848285610950565b509392505050565b600082601f8301126109b6576109b5610889565b5b81356109c684826020860161095f565b91505092915050565b60008115159050919050565b6109e4816109cf565b81146109ef57600080fd5b50565b600081359050610a01816109db565b92915050565b600080600060608486031215610a2057610a1f610849565b5b6000610a2e86828701610874565b935050602084013567ffffffffffffffff811115610a4f57610a4e61084e565b5b610a5b868287016109a1565b9250506040610a6c868287016109f2565b9150509250925092565b600060208284031215610a8c57610a8b610849565b5b600082013567ffffffffffffffff811115610aaa57610aa961084e565b5b610ab6848285016109a1565b91505092915050565b600073ffffffffffffffffffffffffffffffffffffffff82169050919050565b6000610aea82610abf565b9050919050565b610afa81610adf565b8114610b0557600080fd5b50565b600081359050610b1781610af1565b92915050565b600060208284031215610b3357610b32610849565b5b6000610b4184828501610b08565b91505092915050565b610b5381610853565b82525050565b6000602082019050610b6e6000830184610b4a565b92915050565b600060208284031215610b8a57610b89610849565b5b6000610b9884828501610874565b91505092915050565b600081519050919050565b600082825260208201905092915050565b60005b83811015610bdb578082015181840152602081019050610bc0565b60008484015250505050565b6000610bf282610ba1565b610bfc8185610bac565b9350610c0c818560208601610bbd565b610c1581610893565b840191505092915050565b610c29816109cf565b82525050565b610c3881610adf565b82525050565b6000608082019050610c536000830187610b4a565b8181036020830152610c658186610be7565b9050610c746040830185610c20565b610c816060830184610c2f565b95945050505050565b7f4e487b7100000000000000000000000000000000000000000000000000000000600052602260045260246000fd5b60006002820490506001821680610cd157607f821691505b602082108103610ce457610ce3610c8a565b5b50919050565b60008190508160005260206000209050919050565b60006020601f8301049050919050565b600082821b905092915050565b600060088302610d4c7fffffffffffffffffffffffffffffffffffffffffffffffffffffffffffffffff82610d0f565b610d568683610d0f565b95508019841693508086168417925050509392505050565b6000819050919050565b6000610d93610d8e610d8984610853565b610d6e565b610853565b9050919050565b6000819050919050565b610dad83610d78565b610dc1610db982610d9a565b848454610d1c565b825550505050565b600090565b610dd6610dc9565b610de1818484610da4565b505050565b5b81811015610e0557610dfa600082610dce565b600181019050610de7565b5050565b601f821115610e4a57610e1b81610cea565b610e2484610cff565b81016020851015610e33578190505b610e47610e3f85610cff565b830182610de6565b50505b505050565b600082821c905092915050565b6000610e6d60001984600802610e4f565b1980831691505092915050565b6000610e868383610e5c565b9150826002028217905092915050565b610e9f82610ba1565b67ffffffffffffffff811115610eb857610eb76108a4565b5b610ec28254610cb9565b610ecd828285610e09565b600060209050601f831160018114610f005760008415610eee578287015190505b610ef88582610e7a565b865550610f60565b601f198416610f0e86610cea565b60005b82811015610f3657848901518255600182019150602085019450602081019050610f11565b86831015610f535784890151610f4f601f891682610e5c565b8355505b6001600288020188555050505b505050505050565b6000606082019050610f7d6000830186610b4a565b8181036020830152610f8f8185610be7565b9050610f9e6040830184610c20565b949350505050565b7f5461736b20636f6e74656e742063616e6e6f7420626520656d70747900000000600082015250565b6000610fdc601c83610bac565b9150610fe782610fa6565b602082019050919050565b6000602082019050818103600083015261100b81610fcf565b9050919050565b7f4e487b7100000000000000000000000000000000000000000000000000000000600052601160045260246000fd5b600061104c82610853565b91507fffffffffffffffffffffffffffffffffffffffffffffffffffffffffffffffff820361107e5761107d611012565b5b600182019050919050565b600060608201905061109e6000830186610b4a565b81810360208301526110b08185610be7565b90506110bf6040830184610c2f565b949350505050565b7f4f6e6c7920746865207461736b206f776e65722063616e2064656c657465207460008201527f6865207461736b00000000000000000000000000000000000000000000000000602082015250565b6000611123602783610bac565b915061112e826110c7565b604082019050919050565b6000602082019050818103600083015261115281611116565b9050919050565b600061116482610853565b91506000820361117757611176611012565b5b60018203905091905056fea2646970667358221220df0a73b644c73c12bbc42e136de7e8af98285400f8b18ce5a7d441b14926a47d64736f6c634300081b0033",
  "linkReferences": {},
  "deployedLinkReferences": {}
}